S02B0000456C656374726F6E69632D5363616C65732D576974682D546F7563682D436F6E74726F6C2E737265C5
S11300000C94E4040C9401050C9401050C94010572
S11300100C9401050C9401050C9401050C94010544
S11300200C9401050C9401050C94320F0C940105F9
S11300300C9401050C9401050C9401050C94010524
S11300400C9401050C9401050C9401050C94010514
S11300500C940105C1C1C1C10000C2C2FEFE010071
S1130060C3C31F1F0100C4C4FCFC0100C5C5C5C532
S11300700101C6BDBFBE0101C7C7C0C00100C8821F
S113008084830101C9C9FDFD0100CA858786010178
S1130090CB888A890101CC8BCC8B0101CD8CCD8C92
S11300A00101CE11CE110101CFCF13130100D0D025
S11300B08F8F0100D1D11B1B0100D2D2919101007D
S11300C0D39294930101D49597960101D5179A99E7
S11300D00101D69B9D9C0101D7D7D7D70000D8D862
S11300E09E9E0101D9D99F9F0101DAA0A2A101011D
S11300F0DBA3A5A40101DCDCDCDC0000DDA6A8A7F1
S11301000101DEA9ABAA0101DFACAEAD0101E0E063
S1130110E0E00000E1AFB1B00101E2E2E2E20000A0
S1130120E3B2B4B30101E4B5B7B60101E5B8BAB9B5
S11301300101E6E6BCBC0100E7E7E7E70000E8E808
S1130140E8E80000E9E9E9E90000EAEAEAEA00008F
S1130150EBEBEBEB0000ECBDBFBE0101EDBDBFBEA0
S11301600101EEEEEEEE0000EFEFEFEF0000F0F035
S1130170F0F00000F1F1F1F10000F2F2F2F200000F
S1130180F3F3F3F30000F5F5F5F50000F6F6F6F6F3
S11301900000F7F7F7F70000F8F8F8F80000FBF9AB
S11301A0FBFA0101BBBBF4F40100811C1E1D01011B
S11301B090181A1901019814161501018E8E121245
S11301C001008D108D1001010000000000000000EE
S11301D0000000000000000000000000000000001B
S11301E0000000000000000000000000000000000B
S11301F000000000000000000000000000000000FB
S113020000000000000000000000000000000000EA
S113021000000000000000000000000000000000DA
S113022000000000000000000000000000000000CA
S113023000000000000000000000000000000000BA
S113024000000000000000002020282868B0602082
S11302502020282A28302020008080443224202096
S1130260002424243820202020202020242A1100A7
S1130270202020242A11202030202020242A11206C
S1130280202030203028281820242221242A11005C
S1130290242221242A11202030242221242A11203E
S11302A0008080403020202020202060A060283062
S11302B020202060B060202000302860A060302022
S11302C00004061D2524202000000000000000007A
S11302D000004F00000000000007000700000000BD
S11302E000147F147F14000000242A7F2A120000C7
S11302F000231308646200000036495522400000C0
S11303000000050300000000001C22410000000062
S11303100041221C000000000014083E08140000E4
S11303200008083E0808000000002818000000002B
S11303300008080808080800003030000000000029
S11303400020100804020000003E5149453E000010
S11303500000427F40000000004261514946000015
S1130360002141454B310000001814127F10000099
S11303700000274545453900003C4A494930000002
S1130380000171090503000000364949493600009F
S113039000064949291E000000003636000000000E
S11303A0000056360000000000081422410000003E
S11303B00024242424240000000041221408000006
S11303C0000201510906000000324979413E000053
S11303D0007E1111117E0000007F4949493600005A
S11303E0003E414141220000007F4141221C0000A7
S11303F0007F494949410000007F090909010000C3
S1130400003E4149493A0000007F0808087F000087
S11304100000417F41000000002040413F010000F6
S1130420007F081422410000007F4040404000004B
S1130430007F020C027F0000007F0408107F000090
S1130440003E4141413E0000007F090909060000C9
S11304503E4151215E000000007F09192946000039
S113046000464949493100000001017F01010000B3
S1130470003F4040403F0000001F2040201F00007C
S1130480003F4060403F0000006314081463000014
S11304900007087008070000006151494543000047
S11304A0007F4141000000000015167C1615000075
S11304B00041417F0000000000040201020400002A
S11304C000404040404000000001020400000000E1
S11304D00020545454780000007F44444438000001
S11304E0003844444400000000384444487F00007D
S11304F0003854545418000000107E11010200000A
S1130500000C5252523E0000007F080404780000A0
S11305100000447D40000000002040403D000000F9
S1130520007F1028440000000000417F40000000CC
S1130530007C041804780000007C0804047800009F
S11305400038444444380000007C141414080000AB
S113055000081414187C0000007C0804040800003F
S1130560004854545420000000043F44402000003C
S1130570003C4040207C0000001C2040201C000067
S1130580001E2010201E0000002214081422000067
S113059000064848483E0000004464544C440000AF
S11305A000083641000000000000007F0000000049
S11305B000413608000000000008082A1C0800005A
S11305C000081C2A08080000003C4241423C00008C
S11305D000302860A060283020202020A02028306F
S11305E020202020B020202000302820A0203020EF
S11305F020202022202228302020202230222020C7
S113060000302822202230202020202221222830BD
S113061020202022312220200030282221223020B4
S11306202020282828B020202020282828302020F6
S113063000C0A82868B06020000080804432040014
S1130640002425243820202030242221242A1100AB
S1130650008080403420202020202038203820189A
S113066020203820382038206080807820382018D6
S113067020202038223922182020382239223820FC
S1130680608080782239221830202020242A11000A
S11306902030203028283820608080603028283896
S11306A02020302030282A1820302030282A3820D2
S11306B06080806030282A3820203E302828382066
S11306C020203E30282A38202020202030282800CE
S11306D020202030282820200040A0B028282020D6
S11306E02020202030282A0020202030282A2020E2
S11306F00040A0B0282A20202020202030282A30A2
S1130700202030282A3020200018202030282A30A9
S113071020202020302A28322020302A283220206D
S1130720608080B2A87A2020222525252525251938
S11307302020201C2221202030282C2A203F202069
S11307402020202020201F000000000000070507B3
S1130750003040403F2020202020202030484830D6
S11307602020304848302020804030484830202025
S11307702020202022201800202020201A202020A1
S1130780304044403020202020202030283A2C18AB
S1130790202030283A2C3820001814141820202047
S11307A00021222428100F0000B0A8782020202047
S11307B0202020A020A02830202020A030A020200D
S11307C000608080A0501020001E202020202020C7
S11307D00020302828200000000402023A0202010E
S11307E0000004063D050400000004B6AD7D0400CD
S11307F0000080C0BFA0800004668595A8A84800BA
S11308000000003F0000000000302820A020283015
S11308100000302A2832000000302822202228300C
S1130820003028222122283000C0A8A828B0202087
S113083000C0A8A8A830202000C0A8AA28302020E2
S1130840000024242438000000002425243800005B
S113085000808040300000000000808040340000B0
S113086060808078203820186080807822392218AF
S113087060808060302828186080806030282A18C2
S1130880002214081422000020203E3028281800DA
S113089020203E30282A1800000040A0B02828005C
S11308A0000040A0B02A2800202020202020202062
S11308B00018202030282A3000608080B2A87A00F6
S11308C00030282C2A203F000040A9AAA8F00000EC
S11308D000006080807E00000040AAA9AAF0000009
S11308E00000C0203028283000006080888060002C
S11308F00000302828300000000000B0A878000074
S11309000426252528100F000422222629100F0072
S113091000212224A8D0AFA00070AAA9AA30000008
S11309200070AAA8AA3000000030404050280800F7
S11309300030C040D0280800000002790200000006
S11309400000027802000000000000000005050518
S113095000000004030B0606A0A0A0000000000095
S113096000000101010100000021222428102F2091
S11309700000000000040303000080808080000069
S113098000001010541010000000020402040200C1
S11309902024262525202830202426253520202003
S11309A0086C8A8AA050102004B6AD7D2420202033
S11309B000191415182020200402021A22222120D2
S11309C0004060504850404011241FBECFE5D8E09D
S11309D0DEBFCDBF10E0A0E6B0E0E2EBF4E202C07F
S11309E005900D92AE37B107D9F720E0AEE7B0E03D
S11309F001C01D92AF39B207E1F70E944D0D0C946E
S1130A0057120C94000082B3806482BB85E88A95F7
S1130A10F1F7000082B38F7B82BB85E88A95F1F7FA
S1130A200000089588B38E7F88BB88B38D7F88BB10
S1130A308BB38B7F8BBB8BB3877F8BBB8FE385BBE8
S1130A400E940305089588B38E7F88BB88B38D7F89
S1130A5088BB8BB38B7F8BBB8BB3877F8BBB8EE3C6
S1130A6085BB0E94030508952BB32B7F2BBB2BB3AF
S1130A70277F2BBB8034910538F498B39E7F98BBB5
S1130A8098B3926098BB07C098B3916098BB98B331
S1130A909D7F98BB80548F77806485BB0E9403053B
S1130AA008959BB39B7F9BBB9BB3977F9BBB877036
S1130AB0886B85BB0E9403050895CF93DF93EB01F8
S1130AC00E943405CE010E945105DF91CF91089513
S1130AD09BB394609BBB9BB3977F9BBB85BB82E01E
S1130AE08A95F1F700C00E9403050895CF93DF9320
S1130AF0C82FD0E0BE0180E090E00E945D05BE01F9
S1130B0080E490E00E945D0588B38E7F88BBC0E0DE
S1130B10D0E004C080E00E9468052196C034D1056D
S1130B20CCF3DF91CF910895CF93DF93C0E0D0E071
S1130B3004C08C2F0E9476052196C830D105CCF3D1
S1130B40DF91CF91089514BA9BB398609BBB9BB37C
S1130B5094609BBB803438F488B38E7F88BB88B3A1
S1130B60826088BB06C088B38D7F88BB88B38160F0
S1130B7088BB82E08A95F1F700C082B3806482BBAF
S1130B8092E09A95F1F700C082B38F7B82BB85E334
S1130B908A95F1F7000082B3806482BB92E09A9553
S1130BA0F1F700C083B392B39F7B92BB92E09A9516
S1130BB0F1F700C09FEF94BB0895DF92EF92FF928C
S1130BC00F931F93CF93DF93F82EE92EEB01D42ECE
S1130BD08B01169507951695079516950795B801F7
S1130BE00E945D05DD2021F081E0D81689F01FC048
S1130BF0CE0187709927C1E0D0E002C0CC0FDD1F81
S1130C008A95E2F78F2D0E94A305C095C82310C0D2
S1130C10CE0187709927C1E0D0E002C0CC0FDD1F60
S1130C208A95E2F78F2D0E94A305C82B01C0C0E06E
S1130C30B8018F2D9E2D0E945D058C2F0E946805A2
S1130C40DF91CF911F910F91FF90EF90DF90089566
S1130C50BF92CF92DF92EF92FF920F931F93CF93A5
S1130C60DF937C016B01142FB22EEC0109C0402FDD
S1130C70B601CE010E94DD0581E08B0DC80FD11DA8
S1130C80C701810F911DC817D90788F3DF91CF9150
S1130C901F910F91FF90EF90DF90CF90BF90089538
S1130CA0AF92BF92CF92DF92EF92FF920F931F9376
S1130CB0CF93DF935C017B016A01122FEB0109C022
S1130CC0402FBE01C5010E94DD0581E0810FC80FE0
S1130CD0D11DC6018E0D9F1DC817D90788F3DF915A
S1130CE0CF911F910F91FF90EF90DF90CF90BF9025
S1130CF0AF9008952F923F924F925F926F927F929E
S1130D008F929F92AF92BF92CF92DF92EF92FF9217
S1130D100F931F93CF93DF93CDB7DEB728970FB60A
S1130D20F894DEBF0FBECDBF1C0178876F834A01E4
S1130D303E832D83F02E8417950761F5C901861B28
S1130D40970B8C0122F400271127081B190B2D8106
S1130D503E81B90180E090E00E94BF104B015C012C
S1130D604F815885BA0180E090E00E94BF10A50130
S1130D7094010E94FC1098012F5F3F4F3A8329830E
S1130D800E9490100E2D2F2D49815A81C1010E947D
S1130D905006FDC04D815E818F81988548175907A3
S1130DA039F5C401821993098C0122F40027112713
S1130DB0081B190BB40180E090E00E94BF104B01A6
S1130DC05C01B10180E090E00E94BF10A501940194
S1130DD00E94FC1011E0100F0E949010DC01CB0166
S1130DE00E2D2F2D412F6F8178850E942806CFC0AC
S1130DF08214930468F4C10199272F81388533271D
S1130E004D815E8158874F833E832D8314014C01AD
S1130E106D817E818F819885681B790B072E000C6C
S1130E20880B990B0E94C1102B013C01B40162197B
S1130E30730980E090E00E94BF109B01AC01C301E4
S1130E40B2010E94E20F69837A838B839C832F8192
S1130E503885B90180E090E00E94BF102B013C016D
S1130E60B10180E090E00E94BF1029813A814B815A
S1130E705C810E947C115B016C019B01AC01C3018C
S1130E80B2010E94750F2B013C019B01AC01C6010C
S1130E90B5010E94760F0E949010162F31E0320D9A
S1130EA0062FB32EAF2C65C0CB2CD12CB6010D2C44
S1130EB0000C880B990B0E94C11029813A814B8147
S1130EC05C810E947C119B01AC01C301B2010E94B0
S1130ED0760F20E030E040E05FE30E94760F0E944E
S1130EE09010F62E862F801B823084F04F2D50E018
S1130EF0401B51090F5F41505109602F70E00E2DC6
S1130F002A2DC60101970E94500613C0802F8F1905
S1130F1082307CF0402F50E04F1951094150510963
S1130F2061E06F0D70E00E2D2A2DC60101970E941D
S1130F3050064F8158858416950659F41F1109C02F
S1130F406F2D70E00E2D20E0482D4219C1010E9442
S1130F5028061F1561F04B2D4219612F70E00E2DEC
S1130F6020E0C1010E9428061F2D2F803884B394ED
S1130F700F2D8B2D90E098878F838816990608F0A3
S1130F8093CF4E2D6D817E81C4010E94DD0528968C
S1130F900FB6F894DEBF0FBECDBFDF91CF911F9186
S1130FA00F91FF90EF90DF90CF90BF90AF909F9004
S1130FB08F907F906F905F904F903F902F90089507
S1130FC08F929F92AF92BF92CF92DF92EF92FF9255
S1130FD00F931F93CF93DF93F82EB92E6B01A42E9A
S1130FE0852EE901102F942E981A0E2D212F492DAC
S1130FF00E942806212F492DBE018F2D9B2D0E9472
S11310002806CC19DD09212FAE01B6018F2D9B2DA9
S11310100E945006AE014F5F5F4F212FB6018A2D0B
S1131020982D0E945006DF91CF911F910F91FF9050
S1131030EF90DF90CF90BF90AF909F908F900895E6
S1131040DC0120E050E015C0FD01E50FF11D9081A9
S11310509695908360FF02C0906890832F5F42133F
S113106002C0669520E03F5F01C030E0383060F395
S11310705F5F5417D0F308952F923F924F925F927F
S11310806F927F928F929F92AF92BF92CF92DF9294
S1131090EF92FF920F931F93CF93DF9300D000D072
S11310A0CDB7DEB78C015B013A01422E2DB73EB7B6
S11310B03C832B83842C912C7401C401880F991FC9
S11310C0880F991F880F991F281B390B0FB6F894A6
S11310D03EBF0FBE2DBF8DB79EB701966C016983CD
S11310E0BA82CB010E943405C3010E945105512CE0
S11310F01BC0252D30E0F801EE0FFF1FEE0FFF1F80
S1131100EE0FFF1FE20FF31FE853FE4F6491E29EC0
S1131110C001E39E900DF29E900D1124442D8C0D80
S11311209D1D0E942008539497E0951510F7212CDB
S113113039C0032D10E0809EC001819E900D909EC9
S1131140900D11249501250D311D820F931F8034BC
S1131150910529F4B30180E490E00E945D05E09ECE
S1131160C001E19E900DF09E900D1124F601E20D58
S1131170F11DE80FF91F80810E946805539401C096
S1131180512C5414B0F2339401C0312C27E02315B0
S1131190B8F73FEF631A730AB30189819A810E94F9
S11311A05D052394241488F38B819C810FB6F894F5
S11311B09EBF0FBE8DBF0F900F900F900F90DF91C9
S11311C0CF911F910F91FF90EF90DF90CF90BF9040
S11311D0AF909F908F907F906F905F904F903F90D3
S11311E02F900895EF92FF920F931F93CF93DF9365
S11311F0C82FD62FF72E142FE52E213009F091C0D9
S11312008E3879F028F4813881F08D3861F00EC081
S1131210803919F0883919F009C0CBEF07C0CCEF39
S113122005C0CDEF03C0CEEF01C0CAEFC13C08F446
S113123045C08091610090916200813C91050CF45D
S11312403DC0815C9109FC01EE0FFF1FE80FF91FFF
S1131250EE0FFF1FE75AFF4FE491EE2379F12C2F95
S113126030E0215C3109F901EE0FFF1FE20FF31F9B
S1131270EE0FFF1FE85AFF4FE491EE23F9F0E091DF
S11312809E00F0E031969C01220F331F820F931FC2
S1131290880F991F8E0F9F1FFC01EC5AFF4F8491FA
S11312A040919C0050E060919D0070E0202F90E000
S11312B00E943C0882E080939E0002C010929E002F
S11312C0C13CD8F08C2F90E0815C910920919E0064
S11312D0FC01EE0FFF1FE80FF91FEE0FFF1FE20FD7
S11312E0F11DEC5AFF4F8491202F412F5E2D6D2F5D
S11312F07F2D90E00E943C0809C0202F412F5E2DD5
S11313006D2F7F2D8C2F90E00E943C088C2F90E055
S11313109093620080936100D0939D0010939C0091
S113132004C0202F90E00E943C08DF91CF911F91D0
S11313300F91FF90EF9008952F923F924F925F92FA
S11313406F927F928F929F92AF92BF92CF92DF92D1
S1131350EF92FF920F931F93CF93DF936C01EB01F6
S11313605A01322EF02E10E02CC0F601E80FF91FBE
S11313700F2D20E0A501BE0180810E94F2088E2D70
S11313800E2C000C990B08962F2D30E0829FA001A3
S1131390839F500D929F500D1124C40FD51F80E1DF
S11313A090E0821B930B880F991F880F991F880F59
S11313B0991F8C179D0724F4A20EB31EC0E0D0E041
S11313C01F5F812F90E0F60101900020E9F731972B
S11313D0EC19FD098E179F0708F099C0332029F2F4
S11313E0212C96C02601420E531EF2018081813EBB
S11313F039F4F9013196EC0DFD1D9081973CE9F02B
S1131400813E39F4F9013196EC0DFD1D9081933C38
S1131410C9F0813E39F4F9013196EC0DFD1D90813E
S1131420923CA9F0813EE1F42F5F3F4FF601E20FB9
S1131430F31F9081953CA1F40FC00F2EF9EF2F2ECE
S1131440F02D0EC00F2EF7EE2F2EF02D09C00F2E0B
S1131450F8EE2F2EF02D04C00F2EF9EE2F2EF02DC6
S11314602220A1F08F2D90E0880F991F880F991FDB
S1131470880F991FC81BD90B0F2D21E0A501BE01B0
S1131480822D0E94F2081E5F212C27C06F2C712C24
S11314909301220F331F220F331F220F331F4E01DC
S11314A0821A930A0F2D232DA501B4010E94F2087C
S11314B0F2018081803279F48E2D0E2C000C990B70
S11314C00896689E9001699E300D789E300D112417
S11314D04E01821A930A1F5FE4012F2D30E0C901E7
S11314E0880F991F880F991F880F991F0196C81795
S11314F0D90774F4C0E1D0E0C21BD30BCC0FDD1FBD
S1131500CC0FDD1FCC0FDD1FA20EB31E01C0212C9A
S1131510212F30E0F60101900020E9F73197EC1912
S1131520FD092E173F0720F4F1E03F1609F45ACFC6
S113153081EC90E09093620080936100DF91CF9101
S11315401F910F91FF90EF90DF90CF90BF90AF90DD
S11315509F908F907F906F905F904F903F902F90CF
S11315600895AF92BF92CF92DF92EF92FF920F93C2
S11315701F93CF93DF9385E087B986B1806486B9E2
S11315803699FECF80918E00811120C060918F002A
S11315907091900080E090E00E94BF1020E93EE34B
S11315A04AE75FE30E947C110E9459102093910046
S11315B0309392004093930050939400609395006D
S11315C070939600809397009093980080918E007A
S11315D0813001F560918F007091900080E090E07F
S11315E00E94BF102DE732EF49E050E40E947C11C5
S11315F00E945910209391003093920040939300DD
S11316005093940060939500709396008093970094
S11316109093980080918E00823001F560918F0044
S11316207091900080E090E00E94BF102FE532EAB4
S11316304DE15EE30E947C110E94591020939100B9
S113164030939200409393005093940060939500DC
S113165070939600809397009093980020918F0048
S113166030919000AFEDB5E70E94E9110024880F96
S1131670991F001C880F991F001C892F902D859697
S1131680909387008093860020918F003091900082
S11316900E94E9119C010024220F331F001C220F19
S11316A0331F001C232F302D8BE290E0821B930B01
S11316B09093850080938400209182003091830070
S11316C0809186009091870028173907E9F595C025
S11316D020918600309187002C0F3D1FE12C00E003
S11316E04EE150E068E270E08DE290E00E947A06FC
S11316F020918600309187002C1B3D0B4EE150E079
S113170068E270E08DE290E00E947A062091840005
S1131710309185002C0F3D1F4CE350E068E270E0EF
S11317208DE290E00E947A06209184003091850039
S11317302C1B3D0B4CE350E068E270E08DE290E03E
S11317400E947A06219602C0C1E0D0E0C530D105DE
S11317500CF4BECFC5E0D0E027C0209186003091C4
S113176087002C0F3D1F60918600709187006C0FDD
S11317707D1FE12C00E041E250E08BE190E00E940B
S11317807A0620918400309185002C0F3D1F6091D2
S11317908400709185006C0F7D1F4FE350E089E356
S11317A090E00E947A062196CD30D105B4F22091C2
S11317B0840030918500265F3F4F609184007091D2
S11317C085006E5F7F4FE12C00E04CE350E08CE33A
S11317D090E00E947A062091860030918700265F6F
S11317E03F4F60918600709187006E5F7F4F4EE19E
S11317F050E08EE190E00E947A06E12C00E022E3C2
S113180030E04FE250E068E270E08FE290E00E9446
S11318107A062091860030918700EE24E3944EE10D
S113182050E068E270E08DE290E00E947A06209138
S11318308400309185004CE350E068E270E08DE272
S113184090E00E947A062091840030918500275F01
S11318503F4F60918400709185006D5F7F4F4CE332
S113186050E08CE390E00E947A062091860030914B
S11318708700275F3F4F60918600709187006D5FFE
S11318807F4F4EE150E08EE190E00E947A06209175
S1131890860030918700275F3F4F609186007091EA
S11318A08700675F7F4F41E250E08BE190E00E9448
S11318B07A062091840030918500275F3F4F609124
S11318C0840070918500675F7F4F4FE350E089E3A8
S11318D090E00E947A06209191003091920040910C
S11318E093005091940060919500709196000F2E92
S11318F0FAE0AF2EF02DB12CC12CD12CE12CF12C1F
S113190010E080919700909198000E94F811822F26
S113191001E020E041E050E06DE370E0805D0E9472
S1131920F2082091910030919200409193005091DF
S11319309400609195007091960000E0809197006A
S1131940909198000E94FA11209391003093920094
S11319504093930050939400609395007093960085
S113196080939700909398000E94F811822F01E0D1
S113197020E041E050E065E370E0805D0E94F20801
S113198020919100309192004091930050919400E5
S1131990609195007091960000E08091970090917D
S11319A098000E94FA112093910030939200409382
S11319B093005093940060939500709396008093E5
S11319C09700909398000E94F811822F01E020E084
S11319D041E050E065E270E0805D0E94F2082091F1
S11319E09100309192004091930050919400609145
S11319F095007091960000E0809197009091980076
S1131A000E94FA1120939100309392004093930026
S1131A105093940060939500709396008093970080
S1131A20909398000E94F811822F01E020E041E099
S1131A3050E06DE170E0805D0E94F20880918600C4
S1131A40909187009093830080938200DF91CF91DF
S1131A501F910F91FF90EF90DF90CF90BF90AF90C8
S1131A60089584E08BBB8CE08ABB18BA83EE87BBF5
S1131A7080E882BB80EC81BB8FEF84BB089512BEEB
S1131A8089EF8CBF8CE083BF82E089BF83E088BF8D
S1131A90089517B887E886B90895F8940E94310D1F
S1131AA02FEF80E792E0215080409040E1F700C0A2
S1131AB000000E9423052FEF80E792E02150804030
S1131AC09040E1F700C000000E9412050E949405B6
S1131AD00E943F0D0E94490DEE24E39400E02EE3A2
S1131AE030E04EE750E060E070E080E090E00E947B
S1131AF0E00729E130E049E750E06BE070E086E57B
S1131B0090E00E94E0072AE230E049E750E06CE10F
S1131B1070E086E590E00E94E0072BE330E049E7BF
S1131B2050E06DE270E086E590E00E94E00701E09D
S1131B3020E041E050E065E070E083E690E00E9440
S1131B409C09CAE8D0E08B8120E041E050E06DE1DF
S1131B5070E0805D0E94F2088A8122E041E050E05A
S1131B6065E270E0805D0E94F208898122E041E034
S1131B7050E06DE270E0805D0E94F20820E041E0F8
S1131B8050E06DE270E086E690E00E949C09888156
S1131B9022E041E050E06DE370E0805D0E94F208D5
S1131BA020E042E050E06CE370E088E690E00E94C0
S1131BB09C0920E042E050E060E670E08CE690E0B2
S1131BC00E949C0920E044E050E06DE570E08FE65F
S1131BD090E00E949C0920E046E050E060E670E05E
S1131BE083E790E00E949C0900E022E330E04DE2AC
S1131BF050E068E270E08DE290E00E947A062AE309
S1131C0030E043E250E062E370E08DE290E00E9455
S1131C107A062AE330E047E350E062E370E08DE2C5
S1131C2090E00E947A062AE330E047E350E06AE35A
S1131C3070E083E290E00E947A06789480919B00A1
S1131C40813021F40E94B10A10929B008091890096
S1131C508823A4F7809189008074809389008091FF
S1131C608800811111C088B3805888BB10928E00FF
S1131C70EE24E39401E020E042E050E06CE370E005
S1131C8088E690E00E949C0980918800813099F454
S1131C9098B380E4892788BB81E080938E00EE248A
S1131CA0E39401E020E042E050E06CE370E086E77A
S1131CB090E00E949C0980918800823009F0BECF98
S1131CC098B380E2892788BB82E080938E00EE245B
S1131CD0E39401E020E042E050E06CE370E08AE746
S1131CE090E00E949C09AACF84E08BBB8FE99FE01F
S1131CF00197F1F700C0000017B886B1806486B977
S1131D003699FECF84B195B1909381008093800081
S1131D1088E08BBB8FE99FE00197F1F700C00000DA
S1131D2081E087B986B1806486B93699FECF84B1E3
S1131D3095B190937F0080937E0080917E00909176
S1131D407F00813E9140F0F080917E0090917F0071
S1131D508C369240B8F48091800090918100873253
S1131D60924080F080918000909181008230934075
S1131D7048F480918900811105C080EC809389002A
S1131D801092880080917E0090917F008134914070
S1131D90F8F080917E0090917F008C3C9140C0F4DB
S1131DA080918000909181008732924088F08091E8
S1131DB08000909181008230934050F4809189009A
S1131DC0811106C080EC8093890081E080938800B3
S1131DD080917E0090917F00813A9105F8F0809186
S1131DE07E0090917F0082329140C0F48091800007
S1131DF0909181008732924088F080918000909188
S1131E0081008230934050F480918900811106C092
S1131E1080EC8093890082E08093880080917E002A
S1131E2090917F00449778F4809180009091810094
S1131E30449748F48091890086FF05C08091890009
S1131E40807880938900089585E087B986B180649D
S1131E5086B93699FECF84B195B190939000809362
S1131E608F0008951F920F920FB60F9211242F9393
S1131E703F934F935F936F937F938F939F93AF930E
S1131E80BF93EF93FF938091990090919A000196EC
S1131E9090939A00809399008091990090919A0070
S1131EA00A9791F410929A001092990081E080931D
S1131EB060000E94740E80919B00811105C00E94F5
S1131EC0240F81E080939B00FF91EF91BF91AF912C
S1131ED09F918F917F916F915F914F913F912F913E
S1131EE00F900FBE0F901F9018955058BB27AA272C
S1131EF00E948D0F0C9442110E94341138F00E94FC
S1131F003B1120F039F49F3F19F426F40C9421116D
S1131F100EF4E095E7FB0C941B11E92F0E9453117A
S1131F2058F3BA17620773078407950720F079F40A
S1131F30A6F50C9475110EF4E0950B2EBA2FA02D76
S1131F400B01B90190010C01CA01A0011124FF2762
S1131F50591B99F0593F50F4503E68F11A16F0405D
S1131F60A22F232F342F4427585FF3CF469537955C
S1131F702795A795F0405395C9F77EF41F16BA0B21
S1131F80620B730B840BBAF09150A1F0FF0FBB1FCF
S1131F90661F771F881FC2F70EC0BA0F621F731F18
S1131FA0841F48F4879577956795B795F7959E3F75
S1131FB008F0B0CF9395880F08F09927EE0F979506
S1131FC0879508950E94F60F0C9442110E943B11CC
S1131FD058F00E94341140F029F45F3F29F00C942A
S1131FE01B1151110C9476110C9421110E94531160
S1131FF068F39923B1F3552391F3951B550BBB2734
S1132000AA2762177307840738F09F5F5F4F220F78
S1132010331F441FAA1FA9F335D00E2E3AF0E0E86F
S113202032D091505040E695001CCAF72BD0FE2FB9
S113203029D0660F771F881FBB1F2617370748074D
S1132040AB07B0E809F0BB0B802DBF01FF27935805
S11320505F4F3AF09E3F510578F00C941B110C949D
S113206076115F3FE4F3983ED4F3869577956795B0
S1132070B795F7959F5FC9F7880F911D969587953A
S113208097F90895E1E0660F771F881FBB1F621759
S113209073078407BA0720F0621B730B840BBA0B17
S11320A0EE1F88F7E0950895BEE304D008F490E8A5
S11320B00895BFE322273327A9010E945B1160F131
S11320C09F5748F1B91740F1BFE3B91B9927B8509E
S11320D03AF4660F771F881F991FB395D2F316C081
S11320E0B8504AF0232F342F452F562F672F782FBF
S11320F08827B850BAF7B85F49F086957795679501
S11321005795479537952795BA95B9F716F40E94D0
S1132110241188940895889460E070E0CB010895B8
S11321200E945B1188F09F5798F0B92F9927B751F7
S1132130B0F0E1F0660F771F881F991F1AF0BA9567
S1132140C9F714C0B13091F00E947511B1E008953F
S11321500C947511672F782F8827B85F39F0B93F31
S1132160CCF3869577956795B395D9F73EF490951A
S11321708095709561957F4F8F4F9F4F0895E89498
S113218009C097FB3EF490958095709561957F4FBB
S11321908F4F9F4F9923A9F0F92F96E9BB27939569
S11321A0F695879577956795B795F111F8CFFAF479
S11321B0BB0F11F460FF1BC06F5F7F4F8F4F9F4FAA
S11321C016C0882311F096E911C0772321F09EE808
S11321D0872F762F05C0662371F096E8862F70E06E
S11321E060E02AF09A95660F771F881FDAF7880F48
S11321F09695879597F90895990FBB0B550FAA0BE0
S1132200E0E8FEEF16161706E807F90770F0121655
S11322101306E407F50760F0BA1754F031F42617F3
S1132220370748075907A7951BF4B901CA01BA2F04
S1132230B6959795089597F99F6780E870E060E0F8
S113224008959FEF80EC0895909580957095609522
S113225050954095309521953F4F4F4F5F4F6F4FAD
S11322607F4F8F4F9F4F089500240A941616170628
S113227018060906089500240A9412161306140673
S113228005060895092E0394000C11F4882352F0D6
S1132290BB0F40F4BF2B11F460FF04C06F5F7F4F8E
S11322A08F4F9F4F089557FD9058440F551F59F075
S11322B05F3F71F04795880F97FB991F61F09F3F2F
S11322C079F087950895121613061406551FF2CF58
S11322D04695F1DF08C0161617061806991FF1CFA8
S11322E086957105610508940895E894BB276627CF
S11322F07727CB0197F908950E948F110C9442110E
S11323000E94341138F00E943B1120F0952311F003
S11323100C941B110C94211111240C9476110E941D
S1132320531170F3959FC1F3950F50E0551F629FB1
S1132330F001729FBB27F00DB11D639FAA27F00D1A
S1132340B11DAA1F649F6627B00DA11D661F829F41
S11323502227B00DA11D621F739FB00DA11D621F26
S1132360839FA00D611D221F749F3327A00D611D43
S1132370231F849F600D211D822F762F6A2F112425
S11323809F5750409AF0F1F088234AF0EE0FFF1F58
S1132390BB1F661F771F881F91505040A9F79E3FAF
S11323A0510580F00C941B110C9476115F3FE4F3FB
S11323B0983ED4F3869577956795B795F795E79505
S11323C09F5FC1F7FE2B880F911D9695879597F90E
S11323D00895A29FB001B39FC001A39F700D811DFA
S11323E01124911DB29F700D811D1124911D08951A
S11323F0689401C0E8948F929F92CF93DF930E94D8
S11324000612DF91CF919F908F900895882499248C
S1132410F401E401B0E49F93AA279A158B049C0469
S1132420ED05FE05CF05D007A10798F4AD2FDC2FED
S1132430CF2FFE2FE92D982C892E982F872F762FBA
S1132440652F542F432F322F2227B85031F7BF91D5
S113245027C01B2EBF91BB27220F331F441F551FBC
S1132460661F771F881F991F881C991CEE1FFF1F6A
S1132470CC1FDD1FAA1FBB1F8A149B04EC05FD059E
S1132480CE05DF05A007B10748F08A189B08EC09C0
S1132490FD09CE09DF09A00BB10B21601A94E1F606
S11324A02EF49401AF01BE01CD01000C0895F894FF
S10524B0FFCF58
S11324B201C1004D3D002E006B6720004B67004CAC
S11124C26273005374006C6273007374200024
S9030000FC
